:020000040800F2
:10000000FCFF0020E5110000C9110000C91100002B
:10001000C9110000C9110000C9110000C911000078
:10002000C9110000C9110000C9110000C911000068
:10003000C9110000C9110000C9110000C911000058
:10004000C9110000C9110000C9110000C911000048
:10005000C9110000C9110000C9110000C911000038
:10006000C9110000C9110000C9110000C911000028
:10007000C9110000C9110000C9110000C911000018
:10008000C9110000C9110000C9110000C911000008
:10009000C9110000C9110000C9110000C9110000F8
:1000A000C9110000C9110000C9110000C9110000E8
:1000B000C9110000C9110000C9110000C9110000D8
:1000C000C9110000C9110000C9110000C9110000C8
:1000D000C9110000C9110000C9110000C9110000B8
:1000E000C9110000C9110000C9110000C9110000A8
:1000F000C9110000C9110000C9110000C911000098
:10010000C9110000C9110000C9110000C911000087
:10011000C9110000C9110000C9110000C911000077
:10012000C9110000C9110000C9110000C911000067
:10013000C9110000C9110000C9110000C911000057
:10014000C9110000C9110000C9110000C911000047
:1001500083B0CDF800E000F0FF031A09104603F069
:100160000F02134614E0194A02921FE0184A029245
:100170001CE0184A029219E0174A029216E0174A48
:10018000029213E0164A029210E0164A02920DE023
:100190000028E8D00128E9D00228EAD00328EBD0D3
:1001A0000428ECD00528EDD00628EED0012212B2AA
:1001B0009A40ADF8042002980A46BDF8041000F0F9
:1001C0006BF8DDF800E003B0704700BF00080140A5
:1001D000000C0140001001400014014000180140D3
:1001E000001C01400020014081B0194900EA0101D2
:1001F000084600220EE0042022E0082020E0102023
:100200001EE020201CE040201AE0802018E040F290
:10021000001015E00F498842EDD00F498842ECD01C
:100220000E498842EBD00E498842EAD00D498842F7
:10023000E9D00D498842E8D00C498842E7D0104601
:100240000B49096841EA000209490A6001B0704798
:1002500000FCFFFF00080140000C014000100140BD
:100260000014014000180140001C01400020014022
:100270001810024081B000F20C02116000F2080276
:100280001368C3F3000202B9F8E700F20C02126827
:1002900090B201B07047FFFF81B0CDF800E08CB2A2
:1002A0001546774B00EA03031E461846FFF79CFFEE
:1002B000B4F1FF0F0CD1734B9D4203D14FF0333398
:1002C0003360D9E0422D03D14FF044333360D3E0A3
:1002D0004FF6FF739C4214D16A4B9D4207D14FF0F9
:1002E00033333360341D4FF033332360C4E0422D89
:1002F00007D14FF044333360341D4FF04433236053
:10030000BAE00021002005F001030BB100211DE03F
:1003100005F0020333B105F4C0730BB1082100E00E
:10032000042113E005F0040333B105F020030BB101
:10033000042100E0002109E005F0080333B105F0D5
:1003400020030BB10C2100E00821FFE74E4B05EA2A
:1003500003030BB1032009E005F400730BB1022085
:1003600004E005F480630BB10120FFE705F00C0306
:100370000BB10143FFE704F0FF039BB2002B3BD01E
:10038000376800201FFA84F832462E4608282CD2FF
:100390004FF0010303FA00F408EA0403A34222D158
:1003A00085004FF00F03AB40DB4307EA030401FA7B
:1003B00005F344EA03031D4606F48173B3F5817F18
:1003C00005D102F214044FF001038340236006F0CC
:1003D0008203822B05D102F210044FF00103834007
:1003E00023602F46FFE7401CD0E717601FFA88F014
:1003F0000F463146164602E00F462946A0B2B0F13C
:10040000FF0F39D9331DD3F800800022082A30D2DB
:1004100002F208044FF0010303FA04F400EA0403B3
:10042000A34224D195004FF00F03AB40DB4308EA11
:10043000030807FA05F348EA030801F48173B3F5EA
:10044000817F07D106F2140502F208044FF0010380
:10045000A3402B6001F08203822B07D106F2100526
:1004600002F208044FF00103A3402B60FFE7521C87
:10047000CCE7331DC3F80080DDF800E001B0704721
:1004800000FCFFFF140008000008080081B00023F2
:100490000360CB009BB242EA030304689BB244EAC8
:1004A00003030360051D13141C462B6864F38203C9
:1004B0002B6000F21C0500242B6864F3CB232B6017
:1004C0000124036864F38613036001B07047FFFFE3
:1004D00081B0CDF800E0012252B23E490A6000F23C
:1004E00068010B686FF0006103EA0102144603F033
:1004F0000061C90E0B4602F00041B1F1004F02D17C
:1005000035490A6801E035490A6804F47021090C8C
:100510000E464FF6FF7104EA01010D4604F4401146
:10052000B1F5401F0DD16FF0706102EA01010E4676
:100530002A490A686FF070610A4028490A60324609
:1005400016E004F48011B1F5801F09D14FF00301CA
:10055000B140C94302EA010141F070610A4607E077
:10056000610D090105FA01F1C9430A4042F07062C8
:100570002BB1610D090105FA01F10A43FFE704F00F
:100580000041B1F1004F02D113490A6001E0134963
:100590000A6040F2000A81464FEA8A0109EB010134
:1005A0000968B1F1FF3F10D009F134014FEA8A0325
:1005B000C91809680A4609EB03010968084611468B
:1005C000FFF7C6FD0AF1010AE6E7DDF800E001B039
:1005D000704700BF000342421C000140040001407C
:1005E00081B0CDF800E081B20348FFF743FEDDF8AB
:1005F00000E001B0704700BF003C004083B0CDF880
:1006000000E08DF8040002910B4C0C4B1C600C4C6C
:100610000C4B1C60012464B20B4B1C601046FFF7AE
:1006200057FF029A9DF804100848FFF72FFFDDF8E6
:1006300000E003B0704700BFFFFFFFFF080000208D
:10064000E10500000C000020BC034242003C0040D9
:1006500081B0CDF800E081B20348FFF70BFEDDF872
:1006600000E001B0704700BF0038004081B0CDF815
:1006700000E081B20348FFF7FDFDDDF800E001B0C6
:10068000704700BF0030014081B0CDF800E04FF06E
:10069000420289B2FFF700FEDDF800E001B07047CA
:1006A00081B0CDF800E0044A89B2FFF7F5FDDDF82E
:1006B00000E001B0704700BF140008000148006866
:1006C000704700BF2801224201480068704700BF00
:1006D0003481224201480068704700BF080122426D
:1006E00001480068704700BF0001214201480068CE
:1006F000704700BF3001224201480068704700BFC8
:100700002C01224201480068704700BF10012142BD
:10071000026803490A60011D0A6802490A607047BD
:10072000200000202C00002000F230031A680B4942
:100730000A6003F218010A6809490A6003F21C0101
:100740000A6808490A6000F208010A6806490A6056
:10075000011D0A6805490A60704700BF18000020A3
:10076000140000201C00002024000020280000208D
:1007700083B0CDF800E08AB2014690B283B2421E47
:1007800090B26BB10A78D4B2ADF804000291A0B275
:10079000054C2468A0470299BDF80400491CEDE708
:1007A000DDF800E003B0704720000020FFFFFFFFEE
:1007B00040F27707C0F200077F1EFDD100BF00BFE7
:1007C00000BF00BF00BF704701490860704700BF0D
:1007D0009881214201490860704700BF9C812142F5
:1007E00001480068704700BF30812242014800681C
:1007F000704700BF3081224201480068704700BF47
:100800002C01224201480068704700BF300122429B
:1008100001480068704700BF188121420148006804
:10082000704700BF1C81214201480068704700BF2B
:100830001881224201480068704700BF148122429B
:1008400001480068704700BF280122420148006843
:10085000704700BF2081224201480068704700BFF6
:100860001881214201480068704700BF2881224258
:1008700001480068704700BF248122420148006897
:10088000704700BF0C01224201480068704700BF5A
:100890003881224201480068704700BF1C81214214
:1008A00001480068704700BF1401214201490860F7
:1008B000704700BFB001224201490860704700BF85
:1008C000AC01224201490860704700BFA8012242E2
:1008D00001490860704700BF80012142014908605A
:1008E000704700BFA081224201490860704700BFE5
:1008F000A481224201490860704700BFA8812242BA
:1009000081B0CDF800E0011D0A680168C8B2114647
:10091000034AFFF773FE0020DDF800E001B07047E6
:100920004413000081B0CDF800E0A9E0012905D111
:1009300040F220016548FFF7A7FE04E040F22001E5
:100940006248FFF7ADFEBBE0012905D140F2080186
:100950005F48FFF799FE04E040F208015C48FFF7AA
:100960009FFEADE0012905D144F200015948FFF78F
:100970008BFE04E044F200015648FFF791FE9FE031
:10098000012905D140F200415148FFF77DFE04E006
:1009900040F200414E48FFF783FE91E0012905D166
:1009A00040F600014A48FFF76FFE04E040F6000100
:1009B0004748FFF775FE83E0012905D141F20001A8
:1009C0004348FFF761FE04E041F200014048FFF7B1
:1009D00067FE75E0012905D141F200013D48FFF7AE
:1009E00053FE04E041F200013A48FFF759FE67E088
:1009F000012905D140F600013648FFF745FE04E025
:100A000040F600013348FFF74BFE59E0012905D1BC
:100A100040F240012F48FFF737FE04E040F240016A
:100A20002C48FFF73DFE4BE0012905D140F22001A3
:100A30002848FFF729FE04E040F220012548FFF78F
:100A40002FFE3DE0012905D140F240012248FFF789
:100A50001BFE04E040F240011F48FFF721FE2FE09B
:100A6000012905D140F280011B48FFF70DFE04E08B
:100A700040F280011848FFF713FE21E0012020E03A
:100A800000283FF453AF01283FF45EAF02283FF443
:100A900069AF03283FF474AF04283FF47FAF052803
:100AA0003FF48AAF06283FF495AF0728A0D0082866
:100AB000ACD00928B8D00A28C4D00B28D0D0DDE7A4
:100AC0000020DDF800E001B0704700BF00080140E1
:100AD0000010014000140140000C014081B0CDF82D
:100AE00000E0A9E0012905D140F210016548FFF7B7
:100AF000CBFD04E040F210016248FFF7D1FDBBE0FE
:100B0000012905D140F204015F48FFF7BDFD04E073
:100B100040F204015C48FFF7C3FDADE0012905D1B7
:100B200042F200015948FFF7AFFD04E042F2000134
:100B30005648FFF7B5FD9FE0012905D140F200417D
:100B40005148FFF7A1FD04E040F200414E48FFF795
:100B5000A7FD91E0012905D140F600014A48FFF7C1
:100B600093FD04E040F600014748FFF799FD83E05C
:100B7000012905D141F200014348FFF785FD04E05A
:100B800041F200014048FFF78BFD75E0012905D1D6
:100B900040F201013B48FFF777FD04E040F201011C
:100BA0003848FFF77DFD67E0012905D140F200419B
:100BB0003648FFF769FD04E040F200413348FFF793
:100BC0006FFD59E0012905D140F200212F48FFF7C0
:100BD0005BFD04E040F200212C48FFF761FD4BE093
:100BE000012905D140F200112848FFF74DFD04E02E
:100BF00040F200112548FFF753FD3DE0012905D1E2
:100C000040F240012248FFF73FFD04E040F240017E
:100C10001F48FFF745FD2FE0012905D140F2800173
:100C20001B48FFF731FD04E040F280011848FFF750
:100C300037FD21E0012020E000283FF453AF0128D8
:100C40003FF45EAF02283FF469AF03283FF474AF6E
:100C500004283FF47FAF05283FF48AAF06283FF40D
:100C600095AF0728A0D00828ACD00928B8D00A280A
:100C7000C4D00B28D0D0DDE70020DDF800E001B0C3
:100C8000704700BF000801400010014000140140FF
:100C9000000C014081B0CDF800E0011D0A68016838
:100CA000C8B21146034AFFF7A9FC0020DDF800E0B6
:100CB00001B070474413000001490860704700BF4D
:100CC000B481224201490860704700BF8801224276
:100CD00001490860704700BF900121420149086046
:100CE000704700BF9881214201490860704700BFEA
:100CF0009481224201490860704700BFB00122423E
:100D000001490860704700BFAC01224201490860F8
:100D1000704700BF9881224201490860704700BFB8
:100D2000B081224201490860704700BFB081224271
:100D300001490860704700BF9401214201490860E1
:100D4000704700BF8C01224201490860704700BF14
:100D50009C81214201490860704700BFA8012242DE
:100D600001490860704700BFB881224281B0CDF8C8
:100D700000E0034C2468A047DDF800E001B07047B4
:100D8000180000200CE0012013E040F2011010E0F8
:100D900041F211100DE045F255500AE0012008E043
:100DA0000028F0D00128F0D00228F1D00328F2D09A
:100DB000F4E7704781B0CDF800E0034C2468A04709
:100DC000DDF800E001B070471400002081B0CDF8DC
:100DD00000E05FFA81F95FFA82FA0FE05FFA8AF1C8
:100DE0005FFA89F0FFF77AFE0DE05FFA8AF15FFAA9
:100DF00089F0FFF797FD06E0012004E00028EDD020
:100E00000128F2D0F8E7DDF800E001B07047FFFFFD
:100E100081B0CDF800E0012109B2814088B200F034
:100E200005F8DDF800E001B07047FFFF82B0CDF8B3
:100E300000E001A908704A1C010A11700020094C49
:100E40002468A04701A908460221FFF791FCFFF79B
:100E5000AFFC0120034C2468A047DDF800E002B09D
:100E6000704700BF2400002081B0CDF800E0034CA3
:100E70002468A047DDF800E001B070471C000020A6
:100E800081B0CDF800E003460846FFF741FC184664
:100E9000FFF74AFC0020054C2468A0470120044CC1
:100EA0002468A047DDF800E001B07047240000206E
:100EB0002800002081B0CDF800E08B4609E05846BC
:100EC000FFF71EFD0AE05846FFF7E4FE06E00120AA
:100ED00004E00028F3D00128F5D0F8E7DDF800E0C1
:100EE00001B07047FFFFFFFF44F67F77C0F21207A3
:100EF0007F1EFDD100BF00BF00BF00BF00BF704715
:100F000081B01548006840F00101134801601349A1
:100F10001348016010480168124801400E48016002
:100F20000D4801686FF4802001400B4801600C48B7
:100F300001686FF4FE00014009480160064801683D
:100F40006FF0A0500140044801604FF000010648D6
:100F5000016001B0704700BF001002400000FFF0C8
:100F600004100240FFFFF6FE2C10024081B01CF876
:100F7000019B0BF8019BBBEB0A0FF8D101B0704746
:100F800082B0CDF800E051480088FFF74FFFFFF72F
:100F90006BFF002800F0528001214D4801704D4840
:100FA0000078002849D101214A4801704A4B18783D
:100FB000421C12B2052109B292FBF1F001FB102094
:100FC0001870C0B2042832D1002142480170414853
:100FD0000078112810D24AF6AA20FFF727FFFFF762
:100FE00083FF45F25550FFF721FFFFF77DFF394999
:100FF0000878401C0870EAE700213648017035483F
:10100000007811280AD233480078FFF701FFFFF774
:101010006BFF30490878401C0870F0E700212E482B
:1010200001700020FFF7AEFE2849088005E02A483D
:101030000078FFF7A7FE2549088002E00021254837
:101040000170FFF7B7FE8DF80400FFF78FFE9DF8E3
:10105000041081420ED1002120480170FFF7AAFE42
:1010600020B1FFF783FE08B1012100E000211C48F8
:10107000017026E001211B48017018480078012802
:101080001FD0012115480170FFF794FE144909781B
:1010900081420BD00D4A1088410089B21046008869
:1010A000C00B80B241EA000010800AE0074A1088B5
:1010B000410889B210460088C00380B241EA0000AE
:1010C0001080DDF800E002B0704700BF0000002093
:1010D0000200002003000020040000200500002082
:1010E000060000200700002081B0CDF800E00122BA
:1010F00006210020FFF76AFE012207210020FFF7EA
:1011000065FE012200210020FFF760FE0022012180
:101110000020FFF75BFE002202210020FFF756FEB1
:10112000054801460020FFF7C5FEFFF7DDFEDDF8AC
:1011300000E001B0704700BF1014000081B0CDF88E
:1011400000E00B490B48FFF79BFE01210A48018094
:1011500000210A4801700121094801700021094855
:101160000170012108480170DDF800E001B070470E
:1011700018140000B013000000000020030000203D
:1011800002000020050000200700002081B04FF081
:1011900000094FF0000CBDEB0A0F04DCBDEB0B0F98
:1011A00001DBD446EA464BF8049BBBEB0A0FFAD1AD
:1011B000BCEB0A0F05DDE246D9F800B00BF1040BD9
:1011C000F1E701B07047FFFF81B0FEE701B0704763
:1011D00081B002490248016001B070474019010026
:1011E0001000002000F00CF800F01AF9FFF7F0FFF3
:1011F000FFF77AFFFFF7A2FFFFF7C2FEFCE7FEE76B
:1012000081B0CDF800E0464A464B474C47494BF683
:101210008030814206D94648006840F002014448C7
:10122000016011E045F6C050814206D9404800688F
:1012300040F001013E48016006E03D4801686FF062
:10124000070001403A480160FFF75AFE3948036041
:1012500039480460394802EA00013948016002F067
:10126000010040B119463648006800F0020000282D
:1012700000D1F8E700E0194602F4803040B10B4697
:101280002F48006800F40030002800D1F8E700E0A3
:101290000B4602F0805068B12948006840F0805148
:1012A000274801602648006800F00050002800D15F
:1012B000F8E7FFE702F0806078B12148006840F06D
:1012C00080611F48016011461A461D48006800F001
:1012D0000060002800D1F8E701E011461A4601F04D
:1012E000807070B11648006840F080711448016049
:1012F00011461348006800F0007000B9F9E70A468B
:10130000FFE70C48006800F00C01900000F00C00B2
:10131000814200D0F5E7DDF800E001B0704700BF82
:101320008100010502841D004406010040190100EE
:1013300000200240041002402C100240FFFF0F006A
:10134000001002402A0000002B0000002C000000CA
:10135000FFFFFFFF00000000000000000000000091
:10136000000000000000000000000000000000007D
:10137000000000000000000018080000180800002D
:10138000180800000000000000000000000000003D
:10139000000000000000000000000000000000004D
:1013A0000000000000000000000000000011200804
:1013B000D10C0000C50C0000B90C0000C5080000ED
:1013C000B9080000AD080000D1080000F5080000D1
:1013D000E9080000DD080000DD0C0000490D0000F8
:1013E00005070000D5060000C9060000BD06000084
:1013F000F9060000ED060000E106000065080000A7
:10140000710800004D080000590800009508000010
:101410000700000004030000E1050000FFFFFFFFDC
:1014200000B5DFF810B0DFF810A0FFF7AFFE00BD89
:10143000704700BF0000002030000020FFFFFFFFCA
:00000001FF
